{
  "_format": "hh-sol-artifact-1",
  "contractName": "ZendusNFT",
  "sourceName": "contracts/erc721.sol",
  "abi": [
    {
      "inputs": [],
      "stateMutability": "nonpayable",
      "type": "constructor"
    },
    {
      "anonymous": false,
      "inputs": [
        {
          "indexed": true,
          "internalType": "address",
          "name": "owner",
          "type": "address"
        },
        {
          "indexed": true,
          "internalType": "address",
          "name": "approved",
          "type": "address"
        },
        {
          "indexed": true,
          "internalType": "uint256",
          "name": "tokenId",
          "type": "uint256"
        }
      ],
      "name": "Approval",
      "type": "event"
    },
    {
      "anonymous": false,
      "inputs": [
        {
          "indexed": true,
          "internalType": "address",
          "name": "owner",
          "type": "address"
        },
        {
          "indexed": true,
          "internalType": "address",
          "name": "operator",
          "type": "address"
        },
        {
          "indexed": false,
          "internalType": "bool",
          "name": "approved",
          "type": "bool"
        }
      ],
      "name": "ApprovalForAll",
      "type": "event"
    },
    {
      "anonymous": false,
      "inputs": [
        {
          "indexed": true,
          "internalType": "address",
          "name": "from",
          "type": "address"
        },
        {
          "indexed": true,
          "internalType": "address",
          "name": "to",
          "type": "address"
        },
        {
          "indexed": true,
          "internalType": "uint256",
          "name": "tokenId",
          "type": "uint256"
        }
      ],
      "name": "Transfer",
      "type": "event"
    },
    {
      "inputs": [
        {
          "internalType": "address",
          "name": "to",
          "type": "address"
        },
        {
          "internalType": "uint256",
          "name": "tokenId",
          "type": "uint256"
        }
      ],
      "name": "approve",
      "outputs": [],
      "stateMutability": "nonpayable",
      "type": "function"
    },
    {
      "inputs": [
        {
          "internalType": "address",
          "name": "owner",
          "type": "address"
        }
      ],
      "name": "balanceOf",
      "outputs": [
        {
          "internalType": "uint256",
          "name": "",
          "type": "uint256"
        }
      ],
      "stateMutability": "view",
      "type": "function"
    },
    {
      "inputs": [
        {
          "internalType": "uint256",
          "name": "tokenId",
          "type": "uint256"
        }
      ],
      "name": "getApproved",
      "outputs": [
        {
          "internalType": "address",
          "name": "",
          "type": "address"
        }
      ],
      "stateMutability": "view",
      "type": "function"
    },
    {
      "inputs": [
        {
          "internalType": "address",
          "name": "owner",
          "type": "address"
        },
        {
          "internalType": "address",
          "name": "operator",
          "type": "address"
        }
      ],
      "name": "isApprovedForAll",
      "outputs": [
        {
          "internalType": "bool",
          "name": "",
          "type": "bool"
        }
      ],
      "stateMutability": "view",
      "type": "function"
    },
    {
      "inputs": [],
      "name": "mintNFT",
      "outputs": [],
      "stateMutability": "nonpayable",
      "type": "function"
    },
    {
      "inputs": [],
      "name": "name",
      "outputs": [
        {
          "internalType": "string",
          "name": "",
          "type": "string"
        }
      ],
      "stateMutability": "view",
      "type": "function"
    },
    {
      "inputs": [
        {
          "internalType": "uint256",
          "name": "tokenId",
          "type": "uint256"
        }
      ],
      "name": "ownerOf",
      "outputs": [
        {
          "internalType": "address",
          "name": "",
          "type": "address"
        }
      ],
      "stateMutability": "view",
      "type": "function"
    },
    {
      "inputs": [
        {
          "internalType": "address",
          "name": "from",
          "type": "address"
        },
        {
          "internalType": "address",
          "name": "to",
          "type": "address"
        },
        {
          "internalType": "uint256",
          "name": "tokenId",
          "type": "uint256"
        }
      ],
      "name": "safeTransferFrom",
      "outputs": [],
      "stateMutability": "nonpayable",
      "type": "function"
    },
    {
      "inputs": [
        {
          "internalType": "address",
          "name": "from",
          "type": "address"
        },
        {
          "internalType": "address",
          "name": "to",
          "type": "address"
        },
        {
          "internalType": "uint256",
          "name": "tokenId",
          "type": "uint256"
        },
        {
          "internalType": "bytes",
          "name": "_data",
          "type": "bytes"
        }
      ],
      "name": "safeTransferFrom",
      "outputs": [],
      "stateMutability": "nonpayable",
      "type": "function"
    },
    {
      "inputs": [
        {
          "internalType": "address",
          "name": "operator",
          "type": "address"
        },
        {
          "internalType": "bool",
          "name": "approved",
          "type": "bool"
        }
      ],
      "name": "setApprovalForAll",
      "outputs": [],
      "stateMutability": "nonpayable",
      "type": "function"
    },
    {
      "inputs": [
        {
          "internalType": "bytes4",
          "name": "interfaceId",
          "type": "bytes4"
        }
      ],
      "name": "supportsInterface",
      "outputs": [
        {
          "internalType": "bool",
          "name": "",
          "type": "bool"
        }
      ],
      "stateMutability": "view",
      "type": "function"
    },
    {
      "inputs": [],
      "name": "symbol",
      "outputs": [
        {
          "internalType": "string",
          "name": "",
          "type": "string"
        }
      ],
      "stateMutability": "view",
      "type": "function"
    },
    {
      "inputs": [
        {
          "internalType": "uint256",
          "name": "tokenId",
          "type": "uint256"
        }
      ],
      "name": "tokenURI",
      "outputs": [
        {
          "internalType": "string",
          "name": "",
          "type": "string"
        }
      ],
      "stateMutability": "view",
      "type": "function"
    },
    {
      "inputs": [
        {
          "internalType": "address",
          "name": "from",
          "type": "address"
        },
        {
          "internalType": "address",
          "name": "to",
          "type": "address"
        },
        {
          "internalType": "uint256",
          "name": "tokenId",
          "type": "uint256"
        }
      ],
      "name": "transferFrom",
      "outputs": [],
      "stateMutability": "nonpayable",
      "type": "function"
    }
  ],
  "bytecode": "0x608060405260405160200162000015906200031f565b604051602081830303815290604052600890805190602001906200003b92919062000207565b503480156200004957600080fd5b506040518060400160405280600d81526020017f5a656e647573506f656d4e4654000000000000000000000000000000000000008152506040518060400160405280600381526020017f5a504e00000000000000000000000000000000000000000000000000000000008152508160009080519060200190620000ce92919062000207565b508060019080519060200190620000e792919062000207565b505050620001356040518060400160405280601081526020017f4e6968696c204f6273746174202e2e2e000000000000000000000000000000008152506200013b60201b62000ba81760201c565b62000514565b620001db8160405160240162000152919062000336565b6040516020818303038152906040527f41304fac000000000000000000000000000000000000000000000000000000007bffffffffffffffffffffffffffffffffffffffffffffffffffffffff19166020820180517bffffffffffffffffffffffffffffffffffffffffffffffffffffffff8381831617835250505050620001de60201b60201c565b50565b60008151905060006a636f6e736f6c652e6c6f679050602083016000808483855afa5050505050565b8280546200021590620003b7565b90600052602060002090601f01602090048101928262000239576000855562000285565b82601f106200025457805160ff191683800117855562000285565b8280016001018555821562000285579182015b828111156200028457825182559160200191906001019062000267565b5b50905062000294919062000298565b5090565b5b80821115620002b357600081600090555060010162000299565b5090565b6000620002c4826200035a565b620002d0818562000365565b9350620002e281856020860162000381565b620002ed816200041c565b840191505092915050565b60006200030760a38362000376565b915062000314826200042d565b60a382019050919050565b60006200032c82620002f8565b9150819050919050565b60006020820190508181036000830152620003528184620002b7565b905092915050565b600081519050919050565b600082825260208201905092915050565b600081905092915050565b60005b83811015620003a157808201518184015260208101905062000384565b83811115620003b1576000848401525b50505050565b60006002820490506001821680620003d057607f821691505b60208210811415620003e757620003e6620003ed565b5b50919050565b7f4e487b7100000000000000000000000000000000000000000000000000000000600052602260045260246000fd5b6000601f19601f8301169050919050565b7f7b226e616d65223a22436f646520416e642041737069726174696f6e73222c2060008201527f22696d616765223a22697066732e696f2f697066732f516d64696f7a7839635a60208201527f5647486b68355435375635673144466b714468343673795a587172793772506f60408201527f41683951222c20226465736372697074696f6e223a22546865206d69646e696760608201527f6874206b6579626f617264207374726f6c6c206f66206120646576656c6f706560808201527f72227d000000000000000000000000000000000000000000000000000000000060a082015250565b612d8f80620005246000396000f3fe608060405234801561001057600080fd5b50600436106100ea5760003560e01c80636352211e1161008c578063a22cb46511610066578063a22cb46514610249578063b88d4fde14610265578063c87b56dd14610281578063e985e9c5146102b1576100ea565b80636352211e146101cb57806370a08231146101fb57806395d89b411461022b576100ea565b8063095ea7b3116100c8578063095ea7b31461016d57806314f710fe1461018957806323b872dd1461019357806342842e0e146101af576100ea565b806301ffc9a7146100ef57806306fdde031461011f578063081812fc1461013d575b600080fd5b61010960048036038101906101049190611dbb565b6102e1565b60405161011691906121cd565b60405180910390f35b6101276103c3565b60405161013491906121e8565b60405180910390f35b61015760048036038101906101529190611e15565b610455565b6040516101649190612166565b60405180910390f35b61018760048036038101906101829190611d7b565b6104da565b005b6101916105f2565b005b6101ad60048036038101906101a89190611c65565b6106ce565b005b6101c960048036038101906101c49190611c65565b61072e565b005b6101e560048036038101906101e09190611e15565b61074e565b6040516101f29190612166565b60405180910390f35b61021560048036038101906102109190611bf8565b610800565b6040516102229190612448565b60405180910390f35b6102336108b8565b60405161024091906121e8565b60405180910390f35b610263600480360381019061025e9190611d3b565b61094a565b005b61027f600480360381019061027a9190611cb8565b610960565b005b61029b60048036038101906102969190611e15565b6109c2565b6040516102a891906121e8565b60405180910390f35b6102cb60048036038101906102c69190611c25565b610b14565b6040516102d891906121cd565b60405180910390f35b60007f80ac58cd000000000000000000000000000000000000000000000000000000007bffffffffffffffffffffffffffffffffffffffffffffffffffffffff1916827bffffffffffffffffffffffffffffffffffffffffffffffffffffffff191614806103ac57507f5b5e139f000000000000000000000000000000000000000000000000000000007bffffffffffffffffffffffffffffffffffffffffffffffffffffffff1916827bffffffffffffffffffffffffffffffffffffffffffffffffffffffff1916145b806103bc57506103bb82610c41565b5b9050919050565b6060600080546103d29061266d565b80601f01602080910402602001604051908101604052809291908181526020018280546103fe9061266d565b801561044b5780601f106104205761010080835404028352916020019161044b565b820191906000526020600020905b81548152906001019060200180831161042e57829003601f168201915b5050505050905090565b600061046082610cab565b61049f576040517f08c379a0000000000000000000000000000000000000000000000000000000008152600401610496906123c8565b60405180910390fd5b6004600083815260200190815260200160002060009054906101000a900473ffffffffffffffffffffffffffffffffffffffff169050919050565b60006104e58261074e565b90508073ffffffffffffffffffffffffffffffffffffffff168373ffffffffffffffffffffffffffffffffffffffff161415610556576040517f08c379a000000000000000000000000000000000000000000000000000000000815260040161054d90612408565b60405180910390fd5b8073ffffffffffffffffffffffffffffffffffffffff16610575610d17565b73ffffffffffffffffffffffffffffffffffffffff1614806105a457506105a38161059e610d17565b610b14565b5b6105e3576040517f08c379a00000000000000000000000000000000000000000000000000000000081526004016105da90612308565b60405180910390fd5b6105ed8383610d1f565b505050565b60006105fe6007610dd8565b905061060a3382610de6565b61069e816008805461061b9061266d565b80601f01602080910402602001604051908101604052809291908181526020018280546106479061266d565b80156106945780601f1061066957610100808354040283529160200191610694565b820191906000526020600020905b81548152906001019060200180831161067757829003601f168201915b5050505050610e04565b6106a86007610e78565b6106cb604051806060016040528060258152602001612d35602591398233610e8e565b50565b6106df6106d9610d17565b82610f2d565b61071e576040517f08c379a000000000000000000000000000000000000000000000000000000000815260040161071590612428565b60405180910390fd5b61072983838361100b565b505050565b61074983838360405180602001604052806000815250610960565b505050565b6000806002600084815260200190815260200160002060009054906101000a900473ffffffffffffffffffffffffffffffffffffffff169050600073ffffffffffffffffffffffffffffffffffffffff168173ffffffffffffffffffffffffffffffffffffffff1614156107f7576040517f08c379a00000000000000000000000000000000000000000000000000000000081526004016107ee90612348565b60405180910390fd5b80915050919050565b60008073ffffffffffffffffffffffffffffffffffffffff168273ffffffffffffffffffffffffffffffffffffffff161415610871576040517f08c379a000000000000000000000000000000000000000000000000000000000815260040161086890612328565b60405180910390fd5b600360008373ffffffffffffffffffffffffffffffffffffffff1673ffffffffffffffffffffffffffffffffffffffff168152602001908152602001600020549050919050565b6060600180546108c79061266d565b80601f01602080910402602001604051908101604052809291908181526020018280546108f39061266d565b80156109405780601f1061091557610100808354040283529160200191610940565b820191906000526020600020905b81548152906001019060200180831161092357829003601f168201915b5050505050905090565b61095c610955610d17565b8383611272565b5050565b61097161096b610d17565b83610f2d565b6109b0576040517f08c379a00000000000000000000000000000000000000000000000000000000081526004016109a790612428565b60405180910390fd5b6109bc848484846113df565b50505050565b60606109cd82610cab565b610a0c576040517f08c379a0000000000000000000000000000000000000000000000000000000008152600401610a03906123a8565b60405180910390fd5b6000600660008481526020019081526020016000208054610a2c9061266d565b80601f0160208091040260200160405190810160405280929190818152602001828054610a589061266d565b8015610aa55780601f10610a7a57610100808354040283529160200191610aa5565b820191906000526020600020905b815481529060010190602001808311610a8857829003601f168201915b505050505090506000610ab661143b565b9050600081511415610acc578192505050610b0f565b600082511115610b01578082604051602001610ae9929190612142565b60405160208183030381529060405292505050610b0f565b610b0a84611452565b925050505b919050565b6000600560008473ffffffffffffffffffffffffffffffffffffffff1673ffffffffffffffffffffffffffffffffffffffff16815260200190815260200160002060008373ffffffffffffffffffffffffffffffffffffffff1673ffffffffffffffffffffffffffffffffffffffff16815260200190815260200160002060009054906101000a900460ff16905092915050565b610c3e81604051602401610bbc91906121e8565b6040516020818303038152906040527f41304fac000000000000000000000000000000000000000000000000000000007bffffffffffffffffffffffffffffffffffffffffffffffffffffffff19166020820180517bffffffffffffffffffffffffffffffffffffffffffffffffffffffff83818316178352505050506114f9565b50565b60007f01ffc9a7000000000000000000000000000000000000000000000000000000007bffffffffffffffffffffffffffffffffffffffffffffffffffffffff1916827bffffffffffffffffffffffffffffffffffffffffffffffffffffffff1916149050919050565b60008073ffffffffffffffffffffffffffffffffffffffff166002600084815260200190815260200160002060009054906101000a900473ffffffffffffffffffffffffffffffffffffffff1673ffffffffffffffffffffffffffffffffffffffff1614159050919050565b600033905090565b816004600083815260200190815260200160002060006101000a81548173ffffffffffffffffffffffffffffffffffffffff021916908373ffffffffffffffffffffffffffffffffffffffff160217905550808273ffffffffffffffffffffffffffffffffffffffff16610d928361074e565b73ffffffffffffffffffffffffffffffffffffffff167f8c5be1e5ebec7d5bd14f71427d1e84f3dd0314c0f7b2291e5b200ac8c7c3b92560405160405180910390a45050565b600081600001549050919050565b610e00828260405180602001604052806000815250611522565b5050565b610e0d82610cab565b610e4c576040517f08c379a0000000000000000000000000000000000000000000000000000000008152600401610e4390612368565b60405180910390fd5b80600660008481526020019081526020016000209080519060200190610e73929190611a7c565b505050565b6001816000016000828254019250508190555050565b610f28838383604051602401610ea69392919061220a565b6040516020818303038152906040527fe3849f79000000000000000000000000000000000000000000000000000000007bffffffffffffffffffffffffffffffffffffffffffffffffffffffff19166020820180517bffffffffffffffffffffffffffffffffffffffffffffffffffffffff83818316178352505050506114f9565b505050565b6000610f3882610cab565b610f77576040517f08c379a0000000000000000000000000000000000000000000000000000000008152600401610f6e906122e8565b60405180910390fd5b6000610f828361074e565b90508073ffffffffffffffffffffffffffffffffffffffff168473ffffffffffffffffffffffffffffffffffffffff161480610ff157508373ffffffffffffffffffffffffffffffffffffffff16610fd984610455565b73ffffffffffffffffffffffffffffffffffffffff16145b8061100257506110018185610b14565b5b91505092915050565b8273ffffffffffffffffffffffffffffffffffffffff1661102b8261074e565b73ffffffffffffffffffffffffffffffffffffffff1614611081576040517f08c379a000000000000000000000000000000000000000000000000000000000815260040161107890612268565b60405180910390fd5b600073ffffffffffffffffffffffffffffffffffffffff168273ffffffffffffffffffffffffffffffffffffffff1614156110f1576040517f08c379a00000000000000000000000000000000000000000000000000000000081526004016110e8906122a8565b60405180910390fd5b6110fc83838361157d565b611107600082610d1f565b6001600360008573ffffffffffffffffffffffffffffffffffffffff1673ffffffffffffffffffffffffffffffffffffffff16815260200190815260200160002060008282546111579190612583565b925050819055506001600360008473ffffffffffffffffffffffffffffffffffffffff1673ffffffffffffffffffffffffffffffffffffffff16815260200190815260200160002060008282546111ae91906124fc565b92505081905550816002600083815260200190815260200160002060006101000a81548173ffffffffffffffffffffffffffffffffffffffff021916908373ffffffffffffffffffffffffffffffffffffffff160217905550808273ffffffffffffffffffffffffffffffffffffffff168473ffffffffffffffffffffffffffffffffffffffff167fddf252ad1be2c89b69c2b068fc378daa952ba7f163c4a11628f55a4df523b3ef60405160405180910390a461126d838383611582565b505050565b8173ffffffffffffffffffffffffffffffffffffffff168373ffffffffffffffffffffffffffffffffffffffff1614156112e1576040517f08c379a00000000000000000000000000000000000000000000000000000000081526004016112d8906122c8565b60405180910390fd5b80600560008573ffffffffffffffffffffffffffffffffffffffff1673ffffffffffffffffffffffffffffffffffffffff16815260200190815260200160002060008473ffffffffffffffffffffffffffffffffffffffff1673ffffffffffffffffffffffffffffffffffffffff16815260200190815260200160002060006101000a81548160ff0219169083151502179055508173ffffffffffffffffffffffffffffffffffffffff168373ffffffffffffffffffffffffffffffffffffffff167f17307eab39ab6107e8899845ad3d59bd9653f200f220920489ca2b5937696c31836040516113d291906121cd565b60405180910390a3505050565b6113ea84848461100b565b6113f684848484611587565b611435576040517f08c379a000000000000000000000000000000000000000000000000000000000815260040161142c90612248565b60405180910390fd5b50505050565b606060405180602001604052806000815250905090565b606061145d82610cab565b61149c576040517f08c379a0000000000000000000000000000000000000000000000000000000008152600401611493906123e8565b60405180910390fd5b60006114a661143b565b905060008151116114c657604051806020016040528060008152506114f1565b806114d08461171e565b6040516020016114e1929190612142565b6040516020818303038152906040525b915050919050565b60008151905060006a636f6e736f6c652e6c6f679050602083016000808483855afa5050505050565b61152c838361187f565b6115396000848484611587565b611578576040517f08c379a000000000000000000000000000000000000000000000000000000000815260040161156f90612248565b60405180910390fd5b505050565b505050565b505050565b60006115a88473ffffffffffffffffffffffffffffffffffffffff16611a59565b15611711578373ffffffffffffffffffffffffffffffffffffffff1663150b7a026115d1610d17565b8786866040518563ffffffff1660e01b81526004016115f39493929190612181565b602060405180830381600087803b15801561160d57600080fd5b505af192505050801561163e57506040513d601f19601f8201168201806040525081019061163b9190611de8565b60015b6116c1573d806000811461166e576040519150601f19603f3d011682016040523d82523d6000602084013e611673565b606091505b506000815114156116b9576040517f08c379a00000000000000000000000000000000000000000000000000000000081526004016116b090612248565b60405180910390fd5b805181602001fd5b63150b7a0260e01b7bffffffffffffffffffffffffffffffffffffffffffffffffffffffff1916817bffffffffffffffffffffffffffffffffffffffffffffffffffffffff191614915050611716565b600190505b949350505050565b60606000821415611766576040518060400160405280600181526020017f3000000000000000000000000000000000000000000000000000000000000000815250905061187a565b600082905060005b60008214611798578080611781906126d0565b915050600a826117919190612552565b915061176e565b60008167ffffffffffffffff8111156117b4576117b3612806565b5b6040519080825280601f01601f1916602001820160405280156117e65781602001600182028036833780820191505090505b5090505b60008514611873576001826117ff9190612583565b9150600a8561180e9190612719565b603061181a91906124fc565b60f81b8183815181106118305761182f6127d7565b5b60200101907effffffffffffffffffffffffffffffffffffffffffffffffffffffffffffff1916908160001a905350600a8561186c9190612552565b94506117ea565b8093505050505b919050565b600073ffffffffffffffffffffffffffffffffffffffff168273ffffffffffffffffffffffffffffffffffffffff1614156118ef576040517f08c379a00000000000000000000000000000000000000000000000000000000081526004016118e690612388565b60405180910390fd5b6118f881610cab565b15611938576040517f08c379a000000000000000000000000000000000000000000000000000000000815260040161192f90612288565b60405180910390fd5b6119446000838361157d565b6001600360008473ffffffffffffffffffffffffffffffffffffffff1673ffffffffffffffffffffffffffffffffffffffff168152602001908152602001600020600082825461199491906124fc565b92505081905550816002600083815260200190815260200160002060006101000a81548173ffffffffffffffffffffffffffffffffffffffff021916908373ffffffffffffffffffffffffffffffffffffffff160217905550808273ffffffffffffffffffffffffffffffffffffffff16600073ffffffffffffffffffffffffffffffffffffffff167fddf252ad1be2c89b69c2b068fc378daa952ba7f163c4a11628f55a4df523b3ef60405160405180910390a4611a5560008383611582565b5050565b6000808273ffffffffffffffffffffffffffffffffffffffff163b119050919050565b828054611a889061266d565b90600052602060002090601f016020900481019282611aaa5760008555611af1565b82601f10611ac357805160ff1916838001178555611af1565b82800160010185558215611af1579182015b82811115611af0578251825591602001919060010190611ad5565b5b509050611afe9190611b02565b5090565b5b80821115611b1b576000816000905550600101611b03565b5090565b6000611b32611b2d84612488565b612463565b905082815260208101848484011115611b4e57611b4d61283a565b5b611b5984828561262b565b509392505050565b600081359050611b7081612cd8565b92915050565b600081359050611b8581612cef565b92915050565b600081359050611b9a81612d06565b92915050565b600081519050611baf81612d06565b92915050565b600082601f830112611bca57611bc9612835565b5b8135611bda848260208601611b1f565b91505092915050565b600081359050611bf281612d1d565b92915050565b600060208284031215611c0e57611c0d612844565b5b6000611c1c84828501611b61565b91505092915050565b60008060408385031215611c3c57611c3b612844565b5b6000611c4a85828601611b61565b9250506020611c5b85828601611b61565b9150509250929050565b600080600060608486031215611c7e57611c7d612844565b5b6000611c8c86828701611b61565b9350506020611c9d86828701611b61565b9250506040611cae86828701611be3565b9150509250925092565b60008060008060808587031215611cd257611cd1612844565b5b6000611ce087828801611b61565b9450506020611cf187828801611b61565b9350506040611d0287828801611be3565b925050606085013567ffffffffffffffff811115611d2357611d2261283f565b5b611d2f87828801611bb5565b91505092959194509250565b60008060408385031215611d5257611d51612844565b5b6000611d6085828601611b61565b9250506020611d7185828601611b76565b9150509250929050565b60008060408385031215611d9257611d91612844565b5b6000611da085828601611b61565b9250506020611db185828601611be3565b9150509250929050565b600060208284031215611dd157611dd0612844565b5b6000611ddf84828501611b8b565b91505092915050565b600060208284031215611dfe57611dfd612844565b5b6000611e0c84828501611ba0565b91505092915050565b600060208284031215611e2b57611e2a612844565b5b6000611e3984828501611be3565b91505092915050565b611e4b816125b7565b82525050565b611e5a816125c9565b82525050565b6000611e6b826124b9565b611e7581856124cf565b9350611e8581856020860161263a565b611e8e81612849565b840191505092915050565b6000611ea4826124c4565b611eae81856124e0565b9350611ebe81856020860161263a565b611ec781612849565b840191505092915050565b6000611edd826124c4565b611ee781856124f1565b9350611ef781856020860161263a565b80840191505092915050565b6000611f106032836124e0565b9150611f1b8261285a565b604082019050919050565b6000611f336025836124e0565b9150611f3e826128a9565b604082019050919050565b6000611f56601c836124e0565b9150611f61826128f8565b602082019050919050565b6000611f796024836124e0565b9150611f8482612921565b604082019050919050565b6000611f9c6019836124e0565b9150611fa782612970565b602082019050919050565b6000611fbf602c836124e0565b9150611fca82612999565b604082019050919050565b6000611fe26038836124e0565b9150611fed826129e8565b604082019050919050565b6000612005602a836124e0565b915061201082612a37565b604082019050919050565b60006120286029836124e0565b915061203382612a86565b604082019050919050565b600061204b602e836124e0565b915061205682612ad5565b604082019050919050565b600061206e6020836124e0565b915061207982612b24565b602082019050919050565b60006120916031836124e0565b915061209c82612b4d565b604082019050919050565b60006120b4602c836124e0565b91506120bf82612b9c565b604082019050919050565b60006120d7602f836124e0565b91506120e282612beb565b604082019050919050565b60006120fa6021836124e0565b915061210582612c3a565b604082019050919050565b600061211d6031836124e0565b915061212882612c89565b604082019050919050565b61213c81612621565b82525050565b600061214e8285611ed2565b915061215a8284611ed2565b91508190509392505050565b600060208201905061217b6000830184611e42565b92915050565b60006080820190506121966000830187611e42565b6121a36020830186611e42565b6121b06040830185612133565b81810360608301526121c28184611e60565b905095945050505050565b60006020820190506121e26000830184611e51565b92915050565b600060208201905081810360008301526122028184611e99565b905092915050565b600060608201905081810360008301526122248186611e99565b90506122336020830185612133565b6122406040830184611e42565b949350505050565b6000602082019050818103600083015261226181611f03565b9050919050565b6000602082019050818103600083015261228181611f26565b9050919050565b600060208201905081810360008301526122a181611f49565b9050919050565b600060208201905081810360008301526122c181611f6c565b9050919050565b600060208201905081810360008301526122e181611f8f565b9050919050565b6000602082019050818103600083015261230181611fb2565b9050919050565b6000602082019050818103600083015261232181611fd5565b9050919050565b6000602082019050818103600083015261234181611ff8565b9050919050565b600060208201905081810360008301526123618161201b565b9050919050565b600060208201905081810360008301526123818161203e565b9050919050565b600060208201905081810360008301526123a181612061565b9050919050565b600060208201905081810360008301526123c181612084565b9050919050565b600060208201905081810360008301526123e1816120a7565b9050919050565b60006020820190508181036000830152612401816120ca565b9050919050565b60006020820190508181036000830152612421816120ed565b9050919050565b6000602082019050818103600083015261244181612110565b9050919050565b600060208201905061245d6000830184612133565b92915050565b600061246d61247e565b9050612479828261269f565b919050565b6000604051905090565b600067ffffffffffffffff8211156124a3576124a2612806565b5b6124ac82612849565b9050602081019050919050565b600081519050919050565b600081519050919050565b600082825260208201905092915050565b600082825260208201905092915050565b600081905092915050565b600061250782612621565b915061251283612621565b9250827fffffffffffffffffffffffffffffffffffffffffffffffffffffffffffffffff038211156125475761254661274a565b5b828201905092915050565b600061255d82612621565b915061256883612621565b92508261257857612577612779565b5b828204905092915050565b600061258e82612621565b915061259983612621565b9250828210156125ac576125ab61274a565b5b828203905092915050565b60006125c282612601565b9050919050565b60008115159050919050565b60007fffffffff0000000000000000000000000000000000000000000000000000000082169050919050565b600073ffffffffffffffffffffffffffffffffffffffff82169050919050565b6000819050919050565b82818337600083830152505050565b60005b8381101561265857808201518184015260208101905061263d565b83811115612667576000848401525b50505050565b6000600282049050600182168061268557607f821691505b60208210811415612699576126986127a8565b5b50919050565b6126a882612849565b810181811067ffffffffffffffff821117156126c7576126c6612806565b5b80604052505050565b60006126db82612621565b91507fffffffffffffffffffffffffffffffffffffffffffffffffffffffffffffffff82141561270e5761270d61274a565b5b600182019050919050565b600061272482612621565b915061272f83612621565b92508261273f5761273e612779565b5b828206905092915050565b7f4e487b7100000000000000000000000000000000000000000000000000000000600052601160045260246000fd5b7f4e487b7100000000000000000000000000000000000000000000000000000000600052601260045260246000fd5b7f4e487b7100000000000000000000000000000000000000000000000000000000600052602260045260246000fd5b7f4e487b7100000000000000000000000000000000000000000000000000000000600052603260045260246000fd5b7f4e487b7100000000000000000000000000000000000000000000000000000000600052604160045260246000fd5b600080fd5b600080fd5b600080fd5b600080fd5b6000601f19601f8301169050919050565b7f4552433732313a207472616e7366657220746f206e6f6e20455243373231526560008201527f63656976657220696d706c656d656e7465720000000000000000000000000000602082015250565b7f4552433732313a207472616e736665722066726f6d20696e636f72726563742060008201527f6f776e6572000000000000000000000000000000000000000000000000000000602082015250565b7f4552433732313a20746f6b656e20616c7265616479206d696e74656400000000600082015250565b7f4552433732313a207472616e7366657220746f20746865207a65726f2061646460008201527f7265737300000000000000000000000000000000000000000000000000000000602082015250565b7f4552433732313a20617070726f766520746f2063616c6c657200000000000000600082015250565b7f4552433732313a206f70657261746f7220717565727920666f72206e6f6e657860008201527f697374656e7420746f6b656e0000000000000000000000000000000000000000602082015250565b7f4552433732313a20617070726f76652063616c6c6572206973206e6f74206f7760008201527f6e6572206e6f7220617070726f76656420666f7220616c6c0000000000000000602082015250565b7f4552433732313a2062616c616e636520717565727920666f7220746865207a6560008201527f726f206164647265737300000000000000000000000000000000000000000000602082015250565b7f4552433732313a206f776e657220717565727920666f72206e6f6e657869737460008201527f656e7420746f6b656e0000000000000000000000000000000000000000000000602082015250565b7f45524337323155524953746f726167653a2055524920736574206f66206e6f6e60008201527f6578697374656e7420746f6b656e000000000000000000000000000000000000602082015250565b7f4552433732313a206d696e7420746f20746865207a65726f2061646472657373600082015250565b7f45524337323155524953746f726167653a2055524920717565727920666f722060008201527f6e6f6e6578697374656e7420746f6b656e000000000000000000000000000000602082015250565b7f4552433732313a20617070726f76656420717565727920666f72206e6f6e657860008201527f697374656e7420746f6b656e0000000000000000000000000000000000000000602082015250565b7f4552433732314d657461646174613a2055524920717565727920666f72206e6f60008201527f6e6578697374656e7420746f6b656e0000000000000000000000000000000000602082015250565b7f4552433732313a20617070726f76616c20746f2063757272656e74206f776e6560008201527f7200000000000000000000000000000000000000000000000000000000000000602082015250565b7f4552433732313a207472616e736665722063616c6c6572206973206e6f74206f60008201527f776e6572206e6f7220617070726f766564000000000000000000000000000000602082015250565b612ce1816125b7565b8114612cec57600080fd5b50565b612cf8816125c9565b8114612d0357600080fd5b50565b612d0f816125d5565b8114612d1a57600080fd5b50565b612d2681612621565b8114612d3157600080fd5b5056fe416e204e465420772f20494420257320686173206265656e206d696e74656420746f202573a2646970667358221220e3697f0d0ee9661dd35719baeac80bea444194d513ec07af4d0986a06fdc903364736f6c63430008070033",
  "linkReferences": {},
  "deployedLinkReferences": {}
}