{
  "_format": "hh-sol-artifact-1",
  "contractName": "ZendusNFT",
  "sourceName": "contracts/erc721.sol",
  "abi": [
    {
      "inputs": [],
      "stateMutability": "nonpayable",
      "type": "constructor"
    },
    {
      "anonymous": false,
      "inputs": [
        {
          "indexed": true,
          "internalType": "address",
          "name": "owner",
          "type": "address"
        },
        {
          "indexed": true,
          "internalType": "address",
          "name": "approved",
          "type": "address"
        },
        {
          "indexed": true,
          "internalType": "uint256",
          "name": "tokenId",
          "type": "uint256"
        }
      ],
      "name": "Approval",
      "type": "event"
    },
    {
      "anonymous": false,
      "inputs": [
        {
          "indexed": true,
          "internalType": "address",
          "name": "owner",
          "type": "address"
        },
        {
          "indexed": true,
          "internalType": "address",
          "name": "operator",
          "type": "address"
        },
        {
          "indexed": false,
          "internalType": "bool",
          "name": "approved",
          "type": "bool"
        }
      ],
      "name": "ApprovalForAll",
      "type": "event"
    },
    {
      "anonymous": false,
      "inputs": [
        {
          "indexed": true,
          "internalType": "address",
          "name": "from",
          "type": "address"
        },
        {
          "indexed": true,
          "internalType": "address",
          "name": "to",
          "type": "address"
        },
        {
          "indexed": true,
          "internalType": "uint256",
          "name": "tokenId",
          "type": "uint256"
        }
      ],
      "name": "Transfer",
      "type": "event"
    },
    {
      "inputs": [
        {
          "internalType": "address",
          "name": "to",
          "type": "address"
        },
        {
          "internalType": "uint256",
          "name": "tokenId",
          "type": "uint256"
        }
      ],
      "name": "approve",
      "outputs": [],
      "stateMutability": "nonpayable",
      "type": "function"
    },
    {
      "inputs": [
        {
          "internalType": "address",
          "name": "owner",
          "type": "address"
        }
      ],
      "name": "balanceOf",
      "outputs": [
        {
          "internalType": "uint256",
          "name": "",
          "type": "uint256"
        }
      ],
      "stateMutability": "view",
      "type": "function"
    },
    {
      "inputs": [
        {
          "internalType": "uint256",
          "name": "tokenId",
          "type": "uint256"
        }
      ],
      "name": "getApproved",
      "outputs": [
        {
          "internalType": "address",
          "name": "",
          "type": "address"
        }
      ],
      "stateMutability": "view",
      "type": "function"
    },
    {
      "inputs": [
        {
          "internalType": "address",
          "name": "owner",
          "type": "address"
        },
        {
          "internalType": "address",
          "name": "operator",
          "type": "address"
        }
      ],
      "name": "isApprovedForAll",
      "outputs": [
        {
          "internalType": "bool",
          "name": "",
          "type": "bool"
        }
      ],
      "stateMutability": "view",
      "type": "function"
    },
    {
      "inputs": [],
      "name": "mintNFT",
      "outputs": [],
      "stateMutability": "nonpayable",
      "type": "function"
    },
    {
      "inputs": [],
      "name": "name",
      "outputs": [
        {
          "internalType": "string",
          "name": "",
          "type": "string"
        }
      ],
      "stateMutability": "view",
      "type": "function"
    },
    {
      "inputs": [
        {
          "internalType": "uint256",
          "name": "tokenId",
          "type": "uint256"
        }
      ],
      "name": "ownerOf",
      "outputs": [
        {
          "internalType": "address",
          "name": "",
          "type": "address"
        }
      ],
      "stateMutability": "view",
      "type": "function"
    },
    {
      "inputs": [
        {
          "internalType": "address",
          "name": "from",
          "type": "address"
        },
        {
          "internalType": "address",
          "name": "to",
          "type": "address"
        },
        {
          "internalType": "uint256",
          "name": "tokenId",
          "type": "uint256"
        }
      ],
      "name": "safeTransferFrom",
      "outputs": [],
      "stateMutability": "nonpayable",
      "type": "function"
    },
    {
      "inputs": [
        {
          "internalType": "address",
          "name": "from",
          "type": "address"
        },
        {
          "internalType": "address",
          "name": "to",
          "type": "address"
        },
        {
          "internalType": "uint256",
          "name": "tokenId",
          "type": "uint256"
        },
        {
          "internalType": "bytes",
          "name": "_data",
          "type": "bytes"
        }
      ],
      "name": "safeTransferFrom",
      "outputs": [],
      "stateMutability": "nonpayable",
      "type": "function"
    },
    {
      "inputs": [
        {
          "internalType": "address",
          "name": "operator",
          "type": "address"
        },
        {
          "internalType": "bool",
          "name": "approved",
          "type": "bool"
        }
      ],
      "name": "setApprovalForAll",
      "outputs": [],
      "stateMutability": "nonpayable",
      "type": "function"
    },
    {
      "inputs": [
        {
          "internalType": "bytes4",
          "name": "interfaceId",
          "type": "bytes4"
        }
      ],
      "name": "supportsInterface",
      "outputs": [
        {
          "internalType": "bool",
          "name": "",
          "type": "bool"
        }
      ],
      "stateMutability": "view",
      "type": "function"
    },
    {
      "inputs": [],
      "name": "symbol",
      "outputs": [
        {
          "internalType": "string",
          "name": "",
          "type": "string"
        }
      ],
      "stateMutability": "view",
      "type": "function"
    },
    {
      "inputs": [
        {
          "internalType": "uint256",
          "name": "tokenId",
          "type": "uint256"
        }
      ],
      "name": "tokenURI",
      "outputs": [
        {
          "internalType": "string",
          "name": "",
          "type": "string"
        }
      ],
      "stateMutability": "view",
      "type": "function"
    },
    {
      "inputs": [
        {
          "internalType": "address",
          "name": "from",
          "type": "address"
        },
        {
          "internalType": "address",
          "name": "to",
          "type": "address"
        },
        {
          "internalType": "uint256",
          "name": "tokenId",
          "type": "uint256"
        }
      ],
      "name": "transferFrom",
      "outputs": [],
      "stateMutability": "nonpayable",
      "type": "function"
    }
  ],
  "bytecode": "0x60806040523480156200001157600080fd5b506040518060400160405280600e81526020017f434f4445205053414c4d204e46540000000000000000000000000000000000008152506040518060400160405280600381526020017f43504e0000000000000000000000000000000000000000000000000000000000815250816000908051906020019062000096929190620001cf565b508060019080519060200190620000af929190620001cf565b505050620000fd6040518060400160405280601081526020017f4e6968696c204f6273746174202e2e2e000000000000000000000000000000008152506200010360201b62000b6e1760201c565b620003ac565b620001a3816040516024016200011a9190620002c0565b6040516020818303038152906040527f41304fac000000000000000000000000000000000000000000000000000000007bffffffffffffffffffffffffffffffffffffffffffffffffffffffff19166020820180517bffffffffffffffffffffffffffffffffffffffffffffffffffffffff8381831617835250505050620001a660201b60201c565b50565b60008151905060006a636f6e736f6c652e6c6f679050602083016000808483855afa5050505050565b828054620001dd9062000336565b90600052602060002090601f0160209004810192826200020157600085556200024d565b82601f106200021c57805160ff19168380011785556200024d565b828001600101855582156200024d579182015b828111156200024c5782518255916020019190600101906200022f565b5b5090506200025c919062000260565b5090565b5b808211156200027b57600081600090555060010162000261565b5090565b60006200028c82620002e4565b620002988185620002ef565b9350620002aa81856020860162000300565b620002b5816200039b565b840191505092915050565b60006020820190508181036000830152620002dc81846200027f565b905092915050565b600081519050919050565b600082825260208201905092915050565b60005b838110156200032057808201518184015260208101905062000303565b8381111562000330576000848401525b50505050565b600060028204905060018216806200034f57607f821691505b602082108114156200036657620003656200036c565b5b50919050565b7f4e487b7100000000000000000000000000000000000000000000000000000000600052602260045260246000fd5b6000601f19601f8301169050919050565b61311480620003bc6000396000f3fe608060405234801561001057600080fd5b50600436106100ea5760003560e01c80636352211e1161008c578063a22cb46511610066578063a22cb46514610249578063b88d4fde14610265578063c87b56dd14610281578063e985e9c5146102b1576100ea565b80636352211e146101cb57806370a08231146101fb57806395d89b411461022b576100ea565b8063095ea7b3116100c8578063095ea7b31461016d57806314f710fe1461018957806323b872dd1461019357806342842e0e146101af576100ea565b806301ffc9a7146100ef57806306fdde031461011f578063081812fc1461013d575b600080fd5b61010960048036038101906101049190611f19565b6102e1565b60405161011691906123a8565b60405180910390f35b6101276103c3565b60405161013491906123c3565b60405180910390f35b61015760048036038101906101529190611f73565b610455565b6040516101649190612341565b60405180910390f35b61018760048036038101906101829190611ed9565b6104da565b005b6101916105f2565b005b6101ad60048036038101906101a89190611dc3565b610694565b005b6101c960048036038101906101c49190611dc3565b6106f4565b005b6101e560048036038101906101e09190611f73565b610714565b6040516101f29190612341565b60405180910390f35b61021560048036038101906102109190611d56565b6107c6565b6040516102229190612623565b60405180910390f35b61023361087e565b60405161024091906123c3565b60405180910390f35b610263600480360381019061025e9190611e99565b610910565b005b61027f600480360381019061027a9190611e16565b610926565b005b61029b60048036038101906102969190611f73565b610988565b6040516102a891906123c3565b60405180910390f35b6102cb60048036038101906102c69190611d83565b610ada565b6040516102d891906123a8565b60405180910390f35b60007f80ac58cd000000000000000000000000000000000000000000000000000000007bffffffffffffffffffffffffffffffffffffffffffffffffffffffff1916827bffffffffffffffffffffffffffffffffffffffffffffffffffffffff191614806103ac57507f5b5e139f000000000000000000000000000000000000000000000000000000007bffffffffffffffffffffffffffffffffffffffffffffffffffffffff1916827bffffffffffffffffffffffffffffffffffffffffffffffffffffffff1916145b806103bc57506103bb82610c07565b5b9050919050565b6060600080546103d2906128a2565b80601f01602080910402602001604051908101604052809291908181526020018280546103fe906128a2565b801561044b5780601f106104205761010080835404028352916020019161044b565b820191906000526020600020905b81548152906001019060200180831161042e57829003601f168201915b5050505050905090565b600061046082610c71565b61049f576040517f08c379a0000000000000000000000000000000000000000000000000000000008152600401610496906125a3565b60405180910390fd5b6004600083815260200190815260200160002060009054906101000a900473ffffffffffffffffffffffffffffffffffffffff169050919050565b60006104e582610714565b90508073ffffffffffffffffffffffffffffffffffffffff168373ffffffffffffffffffffffffffffffffffffffff161415610556576040517f08c379a000000000000000000000000000000000000000000000000000000000815260040161054d906125e3565b60405180910390fd5b8073ffffffffffffffffffffffffffffffffffffffff16610575610cdd565b73ffffffffffffffffffffffffffffffffffffffff1614806105a457506105a38161059e610cdd565b610ada565b5b6105e3576040517f08c379a00000000000000000000000000000000000000000000000000000000081526004016105da906124e3565b60405180910390fd5b6105ed8383610ce5565b505050565b60006105fe6007610d9e565b905060006106286040516020016106149061230a565b604051602081830303815290604052610dac565b905060008160405160200161063d919061231f565b60405160208183030381529060405290506106583384610f44565b6106628382610f62565b61066c6007610fd6565b61068f60405180606001604052806025815260200161307a602591398433610fec565b505050565b6106a561069f610cdd565b8261108b565b6106e4576040517f08c379a00000000000000000000000000000000000000000000000000000000081526004016106db90612603565b60405180910390fd5b6106ef838383611169565b505050565b61070f83838360405180602001604052806000815250610926565b505050565b6000806002600084815260200190815260200160002060009054906101000a900473ffffffffffffffffffffffffffffffffffffffff169050600073ffffffffffffffffffffffffffffffffffffffff168173ffffffffffffffffffffffffffffffffffffffff1614156107bd576040517f08c379a00000000000000000000000000000000000000000000000000000000081526004016107b490612523565b60405180910390fd5b80915050919050565b60008073ffffffffffffffffffffffffffffffffffffffff168273ffffffffffffffffffffffffffffffffffffffff161415610837576040517f08c379a000000000000000000000000000000000000000000000000000000000815260040161082e90612503565b60405180910390fd5b600360008373ffffffffffffffffffffffffffffffffffffffff1673ffffffffffffffffffffffffffffffffffffffff168152602001908152602001600020549050919050565b60606001805461088d906128a2565b80601f01602080910402602001604051908101604052809291908181526020018280546108b9906128a2565b80156109065780601f106108db57610100808354040283529160200191610906565b820191906000526020600020905b8154815290600101906020018083116108e957829003601f168201915b5050505050905090565b61092261091b610cdd565b83836113d0565b5050565b610937610931610cdd565b8361108b565b610976576040517f08c379a000000000000000000000000000000000000000000000000000000000815260040161096d90612603565b60405180910390fd5b6109828484848461153d565b50505050565b606061099382610c71565b6109d2576040517f08c379a00000000000000000000000000000000000000000000000000000000081526004016109c990612583565b60405180910390fd5b60006006600084815260200190815260200160002080546109f2906128a2565b80601f0160208091040260200160405190810160405280929190818152602001828054610a1e906128a2565b8015610a6b5780601f10610a4057610100808354040283529160200191610a6b565b820191906000526020600020905b815481529060010190602001808311610a4e57829003601f168201915b505050505090506000610a7c611599565b9050600081511415610a92578192505050610ad5565b600082511115610ac7578082604051602001610aaf9291906122e6565b60405160208183030381529060405292505050610ad5565b610ad0846115b0565b925050505b919050565b6000600560008473ffffffffffffffffffffffffffffffffffffffff1673ffffffffffffffffffffffffffffffffffffffff16815260200190815260200160002060008373ffffffffffffffffffffffffffffffffffffffff1673ffffffffffffffffffffffffffffffffffffffff16815260200190815260200160002060009054906101000a900460ff16905092915050565b610c0481604051602401610b8291906123c3565b6040516020818303038152906040527f41304fac000000000000000000000000000000000000000000000000000000007bffffffffffffffffffffffffffffffffffffffffffffffffffffffff19166020820180517bffffffffffffffffffffffffffffffffffffffffffffffffffffffff8381831617835250505050611657565b50565b60007f01ffc9a7000000000000000000000000000000000000000000000000000000007bffffffffffffffffffffffffffffffffffffffffffffffffffffffff1916827bffffffffffffffffffffffffffffffffffffffffffffffffffffffff1916149050919050565b60008073ffffffffffffffffffffffffffffffffffffffff166002600084815260200190815260200160002060009054906101000a900473ffffffffffffffffffffffffffffffffffffffff1673ffffffffffffffffffffffffffffffffffffffff1614159050919050565b600033905090565b816004600083815260200190815260200160002060006101000a81548173ffffffffffffffffffffffffffffffffffffffff021916908373ffffffffffffffffffffffffffffffffffffffff160217905550808273ffffffffffffffffffffffffffffffffffffffff16610d5883610714565b73ffffffffffffffffffffffffffffffffffffffff167f8c5be1e5ebec7d5bd14f71427d1e84f3dd0314c0f7b2291e5b200ac8c7c3b92560405160405180910390a45050565b600081600001549050919050565b60606000825190506000811415610dd55760405180602001604052806000815250915050610f3f565b60006003600283610de691906126d7565b610df0919061272d565b6004610dfc919061275e565b90506000602082610e0d91906126d7565b67ffffffffffffffff811115610e2657610e25612a3b565b5b6040519080825280601f01601f191660200182016040528015610e585781602001600182028036833780820191505090505b509050600060405180606001604052806040815260200161309f604091399050600181016020830160005b86811015610efc5760038101905062ffffff818a015116603f8160121c168401518060081b905060ff603f83600c1c1686015116810190508060081b905060ff603f8360061c1686015116810190508060081b905060ff603f831686015116810190508060e01b90508084526004840193505050610e83565b506003860660018114610f165760028114610f2657610f31565b613d3d60f01b6002830352610f31565b603d60f81b60018303525b508484525050819450505050505b919050565b610f5e828260405180602001604052806000815250611680565b5050565b610f6b82610c71565b610faa576040517f08c379a0000000000000000000000000000000000000000000000000000000008152600401610fa190612543565b60405180910390fd5b80600660008481526020019081526020016000209080519060200190610fd1929190611bda565b505050565b6001816000016000828254019250508190555050565b611086838383604051602401611004939291906123e5565b6040516020818303038152906040527fe3849f79000000000000000000000000000000000000000000000000000000007bffffffffffffffffffffffffffffffffffffffffffffffffffffffff19166020820180517bffffffffffffffffffffffffffffffffffffffffffffffffffffffff8381831617835250505050611657565b505050565b600061109682610c71565b6110d5576040517f08c379a00000000000000000000000000000000000000000000000000000000081526004016110cc906124c3565b60405180910390fd5b60006110e083610714565b90508073ffffffffffffffffffffffffffffffffffffffff168473ffffffffffffffffffffffffffffffffffffffff16148061114f57508373ffffffffffffffffffffffffffffffffffffffff1661113784610455565b73ffffffffffffffffffffffffffffffffffffffff16145b80611160575061115f8185610ada565b5b91505092915050565b8273ffffffffffffffffffffffffffffffffffffffff1661118982610714565b73ffffffffffffffffffffffffffffffffffffffff16146111df576040517f08c379a00000000000000000000000000000000000000000000000000000000081526004016111d690612443565b60405180910390fd5b600073ffffffffffffffffffffffffffffffffffffffff168273ffffffffffffffffffffffffffffffffffffffff16141561124f576040517f08c379a000000000000000000000000000000000000000000000000000000000815260040161124690612483565b60405180910390fd5b61125a8383836116db565b611265600082610ce5565b6001600360008573ffffffffffffffffffffffffffffffffffffffff1673ffffffffffffffffffffffffffffffffffffffff16815260200190815260200160002060008282546112b591906127b8565b925050819055506001600360008473ffffffffffffffffffffffffffffffffffffffff1673ffffffffffffffffffffffffffffffffffffffff168152602001908152602001600020600082825461130c91906126d7565b92505081905550816002600083815260200190815260200160002060006101000a81548173ffffffffffffffffffffffffffffffffffffffff021916908373ffffffffffffffffffffffffffffffffffffffff160217905550808273ffffffffffffffffffffffffffffffffffffffff168473ffffffffffffffffffffffffffffffffffffffff167fddf252ad1be2c89b69c2b068fc378daa952ba7f163c4a11628f55a4df523b3ef60405160405180910390a46113cb8383836116e0565b505050565b8173ffffffffffffffffffffffffffffffffffffffff168373ffffffffffffffffffffffffffffffffffffffff16141561143f576040517f08c379a0000000000000000000000000000000000000000000000000000000008152600401611436906124a3565b60405180910390fd5b80600560008573ffffffffffffffffffffffffffffffffffffffff1673ffffffffffffffffffffffffffffffffffffffff16815260200190815260200160002060008473ffffffffffffffffffffffffffffffffffffffff1673ffffffffffffffffffffffffffffffffffffffff16815260200190815260200160002060006101000a81548160ff0219169083151502179055508173ffffffffffffffffffffffffffffffffffffffff168373ffffffffffffffffffffffffffffffffffffffff167f17307eab39ab6107e8899845ad3d59bd9653f200f220920489ca2b5937696c318360405161153091906123a8565b60405180910390a3505050565b611548848484611169565b611554848484846116e5565b611593576040517f08c379a000000000000000000000000000000000000000000000000000000000815260040161158a90612423565b60405180910390fd5b50505050565b606060405180602001604052806000815250905090565b60606115bb82610c71565b6115fa576040517f08c379a00000000000000000000000000000000000000000000000000000000081526004016115f1906125c3565b60405180910390fd5b6000611604611599565b90506000815111611624576040518060200160405280600081525061164f565b8061162e8461187c565b60405160200161163f9291906122e6565b6040516020818303038152906040525b915050919050565b60008151905060006a636f6e736f6c652e6c6f679050602083016000808483855afa5050505050565b61168a83836119dd565b61169760008484846116e5565b6116d6576040517f08c379a00000000000000000000000000000000000000000000000000000000081526004016116cd90612423565b60405180910390fd5b505050565b505050565b505050565b60006117068473ffffffffffffffffffffffffffffffffffffffff16611bb7565b1561186f578373ffffffffffffffffffffffffffffffffffffffff1663150b7a0261172f610cdd565b8786866040518563ffffffff1660e01b8152600401611751949392919061235c565b602060405180830381600087803b15801561176b57600080fd5b505af192505050801561179c57506040513d601f19601f820116820180604052508101906117999190611f46565b60015b61181f573d80600081146117cc576040519150601f19603f3d011682016040523d82523d6000602084013e6117d1565b606091505b50600081511415611817576040517f08c379a000000000000000000000000000000000000000000000000000000000815260040161180e90612423565b60405180910390fd5b805181602001fd5b63150b7a0260e01b7bffffffffffffffffffffffffffffffffffffffffffffffffffffffff1916817bffffffffffffffffffffffffffffffffffffffffffffffffffffffff191614915050611874565b600190505b949350505050565b606060008214156118c4576040518060400160405280600181526020017f300000000000000000000000000000000000000000000000000000000000000081525090506119d8565b600082905060005b600082146118f65780806118df90612905565b915050600a826118ef919061272d565b91506118cc565b60008167ffffffffffffffff81111561191257611911612a3b565b5b6040519080825280601f01601f1916602001820160405280156119445781602001600182028036833780820191505090505b5090505b600085146119d15760018261195d91906127b8565b9150600a8561196c919061294e565b603061197891906126d7565b60f81b81838151811061198e5761198d612a0c565b5b60200101907effffffffffffffffffffffffffffffffffffffffffffffffffffffffffffff1916908160001a905350600a856119ca919061272d565b9450611948565b8093505050505b919050565b600073ffffffffffffffffffffffffffffffffffffffff168273ffffffffffffffffffffffffffffffffffffffff161415611a4d576040517f08c379a0000000000000000000000000000000000000000000000000000000008152600401611a4490612563565b60405180910390fd5b611a5681610c71565b15611a96576040517f08c379a0000000000000000000000000000000000000000000000000000000008152600401611a8d90612463565b60405180910390fd5b611aa2600083836116db565b6001600360008473ffffffffffffffffffffffffffffffffffffffff1673ffffffffffffffffffffffffffffffffffffffff1681526020019081526020016000206000828254611af291906126d7565b92505081905550816002600083815260200190815260200160002060006101000a81548173ffffffffffffffffffffffffffffffffffffffff021916908373ffffffffffffffffffffffffffffffffffffffff160217905550808273ffffffffffffffffffffffffffffffffffffffff16600073ffffffffffffffffffffffffffffffffffffffff167fddf252ad1be2c89b69c2b068fc378daa952ba7f163c4a11628f55a4df523b3ef60405160405180910390a4611bb3600083836116e0565b5050565b6000808273ffffffffffffffffffffffffffffffffffffffff163b119050919050565b828054611be6906128a2565b90600052602060002090601f016020900481019282611c085760008555611c4f565b82601f10611c2157805160ff1916838001178555611c4f565b82800160010185558215611c4f579182015b82811115611c4e578251825591602001919060010190611c33565b5b509050611c5c9190611c60565b5090565b5b80821115611c79576000816000905550600101611c61565b5090565b6000611c90611c8b84612663565b61263e565b905082815260208101848484011115611cac57611cab612a6f565b5b611cb7848285612860565b509392505050565b600081359050611cce8161301d565b92915050565b600081359050611ce381613034565b92915050565b600081359050611cf88161304b565b92915050565b600081519050611d0d8161304b565b92915050565b600082601f830112611d2857611d27612a6a565b5b8135611d38848260208601611c7d565b91505092915050565b600081359050611d5081613062565b92915050565b600060208284031215611d6c57611d6b612a79565b5b6000611d7a84828501611cbf565b91505092915050565b60008060408385031215611d9a57611d99612a79565b5b6000611da885828601611cbf565b9250506020611db985828601611cbf565b9150509250929050565b600080600060608486031215611ddc57611ddb612a79565b5b6000611dea86828701611cbf565b9350506020611dfb86828701611cbf565b9250506040611e0c86828701611d41565b9150509250925092565b60008060008060808587031215611e3057611e2f612a79565b5b6000611e3e87828801611cbf565b9450506020611e4f87828801611cbf565b9350506040611e6087828801611d41565b925050606085013567ffffffffffffffff811115611e8157611e80612a74565b5b611e8d87828801611d13565b91505092959194509250565b60008060408385031215611eb057611eaf612a79565b5b6000611ebe85828601611cbf565b9250506020611ecf85828601611cd4565b9150509250929050565b60008060408385031215611ef057611eef612a79565b5b6000611efe85828601611cbf565b9250506020611f0f85828601611d41565b9150509250929050565b600060208284031215611f2f57611f2e612a79565b5b6000611f3d84828501611ce9565b91505092915050565b600060208284031215611f5c57611f5b612a79565b5b6000611f6a84828501611cfe565b91505092915050565b600060208284031215611f8957611f88612a79565b5b6000611f9784828501611d41565b91505092915050565b611fa9816127ec565b82525050565b611fb8816127fe565b82525050565b6000611fc982612694565b611fd381856126aa565b9350611fe381856020860161286f565b611fec81612a7e565b840191505092915050565b60006120028261269f565b61200c81856126bb565b935061201c81856020860161286f565b61202581612a7e565b840191505092915050565b600061203b8261269f565b61204581856126cc565b935061205581856020860161286f565b80840191505092915050565b600061206e6032836126bb565b915061207982612a8f565b604082019050919050565b60006120916025836126bb565b915061209c82612ade565b604082019050919050565b60006120b4601c836126bb565b91506120bf82612b2d565b602082019050919050565b60006120d760b0836126cc565b91506120e282612b56565b60b082019050919050565b60006120fa6024836126bb565b915061210582612c3d565b604082019050919050565b600061211d6019836126bb565b915061212882612c8c565b602082019050919050565b6000612140602c836126bb565b915061214b82612cb5565b604082019050919050565b60006121636038836126bb565b915061216e82612d04565b604082019050919050565b6000612186602a836126bb565b915061219182612d53565b604082019050919050565b60006121a96029836126bb565b91506121b482612da2565b604082019050919050565b60006121cc602e836126bb565b91506121d782612df1565b604082019050919050565b60006121ef6020836126bb565b91506121fa82612e40565b602082019050919050565b60006122126031836126bb565b915061221d82612e69565b604082019050919050565b6000612235602c836126bb565b915061224082612eb8565b604082019050919050565b6000612258602f836126bb565b915061226382612f07565b604082019050919050565b600061227b6021836126bb565b915061228682612f56565b604082019050919050565b600061229e601d836126cc565b91506122a982612fa5565b601d82019050919050565b60006122c16031836126bb565b91506122cc82612fce565b604082019050919050565b6122e081612856565b82525050565b60006122f28285612030565b91506122fe8284612030565b91508190509392505050565b6000612315826120ca565b9150819050919050565b600061232a82612291565b91506123368284612030565b915081905092915050565b60006020820190506123566000830184611fa0565b92915050565b60006080820190506123716000830187611fa0565b61237e6020830186611fa0565b61238b60408301856122d7565b818103606083015261239d8184611fbe565b905095945050505050565b60006020820190506123bd6000830184611faf565b92915050565b600060208201905081810360008301526123dd8184611ff7565b905092915050565b600060608201905081810360008301526123ff8186611ff7565b905061240e60208301856122d7565b61241b6040830184611fa0565b949350505050565b6000602082019050818103600083015261243c81612061565b9050919050565b6000602082019050818103600083015261245c81612084565b9050919050565b6000602082019050818103600083015261247c816120a7565b9050919050565b6000602082019050818103600083015261249c816120ed565b9050919050565b600060208201905081810360008301526124bc81612110565b9050919050565b600060208201905081810360008301526124dc81612133565b9050919050565b600060208201905081810360008301526124fc81612156565b9050919050565b6000602082019050818103600083015261251c81612179565b9050919050565b6000602082019050818103600083015261253c8161219c565b9050919050565b6000602082019050818103600083015261255c816121bf565b9050919050565b6000602082019050818103600083015261257c816121e2565b9050919050565b6000602082019050818103600083015261259c81612205565b9050919050565b600060208201905081810360008301526125bc81612228565b9050919050565b600060208201905081810360008301526125dc8161224b565b9050919050565b600060208201905081810360008301526125fc8161226e565b9050919050565b6000602082019050818103600083015261261c816122b4565b9050919050565b600060208201905061263860008301846122d7565b92915050565b6000612648612659565b905061265482826128d4565b919050565b6000604051905090565b600067ffffffffffffffff82111561267e5761267d612a3b565b5b61268782612a7e565b9050602081019050919050565b600081519050919050565b600081519050919050565b600082825260208201905092915050565b600082825260208201905092915050565b600081905092915050565b60006126e282612856565b91506126ed83612856565b9250827fffffffffffffffffffffffffffffffffffffffffffffffffffffffffffffffff038211156127225761272161297f565b5b828201905092915050565b600061273882612856565b915061274383612856565b925082612753576127526129ae565b5b828204905092915050565b600061276982612856565b915061277483612856565b9250817fffffffffffffffffffffffffffffffffffffffffffffffffffffffffffffffff04831182151516156127ad576127ac61297f565b5b828202905092915050565b60006127c382612856565b91506127ce83612856565b9250828210156127e1576127e061297f565b5b828203905092915050565b60006127f782612836565b9050919050565b60008115159050919050565b60007fffffffff0000000000000000000000000000000000000000000000000000000082169050919050565b600073ffffffffffffffffffffffffffffffffffffffff82169050919050565b6000819050919050565b82818337600083830152505050565b60005b8381101561288d578082015181840152602081019050612872565b8381111561289c576000848401525b50505050565b600060028204905060018216806128ba57607f821691505b602082108114156128ce576128cd6129dd565b5b50919050565b6128dd82612a7e565b810181811067ffffffffffffffff821117156128fc576128fb612a3b565b5b80604052505050565b600061291082612856565b91507fffffffffffffffffffffffffffffffffffffffffffffffffffffffffffffffff8214156129435761294261297f565b5b600182019050919050565b600061295982612856565b915061296483612856565b925082612974576129736129ae565b5b828206905092915050565b7f4e487b7100000000000000000000000000000000000000000000000000000000600052601160045260246000fd5b7f4e487b7100000000000000000000000000000000000000000000000000000000600052601260045260246000fd5b7f4e487b7100000000000000000000000000000000000000000000000000000000600052602260045260246000fd5b7f4e487b7100000000000000000000000000000000000000000000000000000000600052603260045260246000fd5b7f4e487b7100000000000000000000000000000000000000000000000000000000600052604160045260246000fd5b600080fd5b600080fd5b600080fd5b600080fd5b6000601f19601f8301169050919050565b7f4552433732313a207472616e7366657220746f206e6f6e20455243373231526560008201527f63656976657220696d706c656d656e7465720000000000000000000000000000602082015250565b7f4552433732313a207472616e736665722066726f6d20696e636f72726563742060008201527f6f776e6572000000000000000000000000000000000000000000000000000000602082015250565b7f4552433732313a20746f6b656e20616c7265616479206d696e74656400000000600082015250565b7f7b226e616d65223a2022436f646520416e642041737069726174696f6e73222c60008201527f20226465736372697074696f6e223a2022546865206d69646e69676874206b6560208201527f79626f617264207374726f6c6c206f66206120536f667477617265206465766560408201527f6c6f7065722e222c2022696d616765223a2022697066732e696f2f697066732f60608201527f516d64696f7a7839635a5647486b68355435375635673144466b71446834367360808201527f795a587172793772506f41683951227d0000000000000000000000000000000060a082015250565b7f4552433732313a207472616e7366657220746f20746865207a65726f2061646460008201527f7265737300000000000000000000000000000000000000000000000000000000602082015250565b7f4552433732313a20617070726f766520746f2063616c6c657200000000000000600082015250565b7f4552433732313a206f70657261746f7220717565727920666f72206e6f6e657860008201527f697374656e7420746f6b656e0000000000000000000000000000000000000000602082015250565b7f4552433732313a20617070726f76652063616c6c6572206973206e6f74206f7760008201527f6e6572206e6f7220617070726f76656420666f7220616c6c0000000000000000602082015250565b7f4552433732313a2062616c616e636520717565727920666f7220746865207a6560008201527f726f206164647265737300000000000000000000000000000000000000000000602082015250565b7f4552433732313a206f776e657220717565727920666f72206e6f6e657869737460008201527f656e7420746f6b656e0000000000000000000000000000000000000000000000602082015250565b7f45524337323155524953746f726167653a2055524920736574206f66206e6f6e60008201527f6578697374656e7420746f6b656e000000000000000000000000000000000000602082015250565b7f4552433732313a206d696e7420746f20746865207a65726f2061646472657373600082015250565b7f45524337323155524953746f726167653a2055524920717565727920666f722060008201527f6e6f6e6578697374656e7420746f6b656e000000000000000000000000000000602082015250565b7f4552433732313a20617070726f76656420717565727920666f72206e6f6e657860008201527f697374656e7420746f6b656e0000000000000000000000000000000000000000602082015250565b7f4552433732314d657461646174613a2055524920717565727920666f72206e6f60008201527f6e6578697374656e7420746f6b656e0000000000000000000000000000000000602082015250565b7f4552433732313a20617070726f76616c20746f2063757272656e74206f776e6560008201527f7200000000000000000000000000000000000000000000000000000000000000602082015250565b7f646174613a6170706c69636174696f6e2f6a736f6e3b6261736536342c000000600082015250565b7f4552433732313a207472616e736665722063616c6c6572206973206e6f74206f60008201527f776e6572206e6f7220617070726f766564000000000000000000000000000000602082015250565b613026816127ec565b811461303157600080fd5b50565b61303d816127fe565b811461304857600080fd5b50565b6130548161280a565b811461305f57600080fd5b50565b61306b81612856565b811461307657600080fd5b5056fe416e204e465420772f20494420257320686173206265656e206d696e74656420746f2025734142434445464748494a4b4c4d4e4f505152535455565758595a6162636465666768696a6b6c6d6e6f707172737475767778797a303132333435363738392b2fa2646970667358221220571410579cb867471af90f612e8eb5c780964a79c447d1dbd1dd3cfd984e266364736f6c63430008070033",
  "linkReferences": {},
  "deployedLinkReferences": {}
}