{
  "_format": "hh-sol-artifact-1",
  "contractName": "ERC20",
  "sourceName": "contracts/erc20.sol",
  "abi": [
    {
      "inputs": [
        {
          "internalType": "string",
          "name": "_name",
          "type": "string"
        },
        {
          "internalType": "string",
          "name": "_symbol",
          "type": "string"
        }
      ],
      "stateMutability": "nonpayable",
      "type": "constructor"
    },
    {
      "anonymous": false,
      "inputs": [
        {
          "indexed": true,
          "internalType": "address",
          "name": "owner",
          "type": "address"
        },
        {
          "indexed": true,
          "internalType": "address",
          "name": "spender",
          "type": "address"
        },
        {
          "indexed": false,
          "internalType": "uint256",
          "name": "value",
          "type": "uint256"
        }
      ],
      "name": "Approval",
      "type": "event"
    },
    {
      "anonymous": false,
      "inputs": [
        {
          "indexed": true,
          "internalType": "address",
          "name": "from",
          "type": "address"
        },
        {
          "indexed": true,
          "internalType": "address",
          "name": "to",
          "type": "address"
        },
        {
          "indexed": false,
          "internalType": "uint256",
          "name": "value",
          "type": "uint256"
        }
      ],
      "name": "Transfer",
      "type": "event"
    },
    {
      "inputs": [
        {
          "internalType": "address",
          "name": "",
          "type": "address"
        },
        {
          "internalType": "address",
          "name": "",
          "type": "address"
        }
      ],
      "name": "allowance",
      "outputs": [
        {
          "internalType": "uint256",
          "name": "",
          "type": "uint256"
        }
      ],
      "stateMutability": "view",
      "type": "function"
    },
    {
      "inputs": [
        {
          "internalType": "address",
          "name": "spender",
          "type": "address"
        },
        {
          "internalType": "uint256",
          "name": "amount",
          "type": "uint256"
        }
      ],
      "name": "approve",
      "outputs": [
        {
          "internalType": "bool",
          "name": "",
          "type": "bool"
        }
      ],
      "stateMutability": "nonpayable",
      "type": "function"
    },
    {
      "inputs": [
        {
          "internalType": "address",
          "name": "",
          "type": "address"
        }
      ],
      "name": "balanceOf",
      "outputs": [
        {
          "internalType": "uint256",
          "name": "",
          "type": "uint256"
        }
      ],
      "stateMutability": "view",
      "type": "function"
    },
    {
      "inputs": [
        {
          "internalType": "uint256",
          "name": "amount",
          "type": "uint256"
        }
      ],
      "name": "burn",
      "outputs": [],
      "stateMutability": "nonpayable",
      "type": "function"
    },
    {
      "inputs": [
        {
          "internalType": "address",
          "name": "receiver",
          "type": "address"
        }
      ],
      "name": "buyToken",
      "outputs": [],
      "stateMutability": "payable",
      "type": "function"
    },
    {
      "inputs": [],
      "name": "decimals",
      "outputs": [
        {
          "internalType": "uint8",
          "name": "",
          "type": "uint8"
        }
      ],
      "stateMutability": "view",
      "type": "function"
    },
    {
      "inputs": [],
      "name": "getContractEtherBalance",
      "outputs": [
        {
          "internalType": "uint256",
          "name": "",
          "type": "uint256"
        }
      ],
      "stateMutability": "view",
      "type": "function"
    },
    {
      "inputs": [],
      "name": "name",
      "outputs": [
        {
          "internalType": "string",
          "name": "",
          "type": "string"
        }
      ],
      "stateMutability": "view",
      "type": "function"
    },
    {
      "inputs": [],
      "name": "owner",
      "outputs": [
        {
          "internalType": "address",
          "name": "",
          "type": "address"
        }
      ],
      "stateMutability": "view",
      "type": "function"
    },
    {
      "inputs": [],
      "name": "symbol",
      "outputs": [
        {
          "internalType": "string",
          "name": "",
          "type": "string"
        }
      ],
      "stateMutability": "view",
      "type": "function"
    },
    {
      "inputs": [],
      "name": "totalSupply",
      "outputs": [
        {
          "internalType": "uint256",
          "name": "",
          "type": "uint256"
        }
      ],
      "stateMutability": "view",
      "type": "function"
    },
    {
      "inputs": [
        {
          "internalType": "address",
          "name": "recipient",
          "type": "address"
        },
        {
          "internalType": "uint256",
          "name": "amount",
          "type": "uint256"
        }
      ],
      "name": "transfer",
      "outputs": [
        {
          "internalType": "bool",
          "name": "",
          "type": "bool"
        }
      ],
      "stateMutability": "nonpayable",
      "type": "function"
    },
    {
      "inputs": [
        {
          "internalType": "address",
          "name": "sender",
          "type": "address"
        },
        {
          "internalType": "address",
          "name": "recipient",
          "type": "address"
        },
        {
          "internalType": "uint256",
          "name": "amount",
          "type": "uint256"
        }
      ],
      "name": "transferFrom",
      "outputs": [
        {
          "internalType": "bool",
          "name": "",
          "type": "bool"
        }
      ],
      "stateMutability": "nonpayable",
      "type": "function"
    }
  ],
  "bytecode": "0x6080604052670de0b6b3a76400006001556012600660006101000a81548160ff021916908360ff1602179055503480156200003957600080fd5b506040516200166e3803806200166e83398181016040528101906200005f919062000208565b816004908051906020019062000077929190620000da565b50806005908051906020019062000090929190620000da565b5033600660016101000a81548173ffffffffffffffffffffffffffffffffffffffff021916908373ffffffffffffffffffffffffffffffffffffffff160217905550505062000411565b828054620000e89062000322565b90600052602060002090601f0160209004810192826200010c576000855562000158565b82601f106200012757805160ff191683800117855562000158565b8280016001018555821562000158579182015b82811115620001575782518255916020019190600101906200013a565b5b5090506200016791906200016b565b5090565b5b80821115620001865760008160009055506001016200016c565b5090565b6000620001a16200019b84620002b6565b6200028d565b905082815260208101848484011115620001c057620001bf620003f1565b5b620001cd848285620002ec565b509392505050565b600082601f830112620001ed57620001ec620003ec565b5b8151620001ff8482602086016200018a565b91505092915050565b60008060408385031215620002225762000221620003fb565b5b600083015167ffffffffffffffff811115620002435762000242620003f6565b5b6200025185828601620001d5565b925050602083015167ffffffffffffffff811115620002755762000274620003f6565b5b6200028385828601620001d5565b9150509250929050565b600062000299620002ac565b9050620002a7828262000358565b919050565b6000604051905090565b600067ffffffffffffffff821115620002d457620002d3620003bd565b5b620002df8262000400565b9050602081019050919050565b60005b838110156200030c578082015181840152602081019050620002ef565b838111156200031c576000848401525b50505050565b600060028204905060018216806200033b57607f821691505b602082108114156200035257620003516200038e565b5b50919050565b620003638262000400565b810181811067ffffffffffffffff82111715620003855762000384620003bd565b5b80604052505050565b7f4e487b7100000000000000000000000000000000000000000000000000000000600052602260045260246000fd5b7f4e487b7100000000000000000000000000000000000000000000000000000000600052604160045260246000fd5b600080fd5b600080fd5b600080fd5b600080fd5b6000601f19601f8301169050919050565b61124d80620004216000396000f3fe6080604052600436106100c25760003560e01c806342966c681161007f5780638da5cb5b116100595780638da5cb5b1461026f57806395d89b411461029a578063a9059cbb146102c5578063dd62ed3e14610302576100c2565b806342966c68146101ed57806370a08231146102165780637e72fb5214610253576100c2565b806306fdde03146100c7578063095ea7b3146100f257806318160ddd1461012f57806323b872dd1461015a57806330e76dae14610197578063313ce567146101c2575b600080fd5b3480156100d357600080fd5b506100dc61033f565b6040516100e99190610e02565b60405180910390f35b3480156100fe57600080fd5b5061011960048036038101906101149190610c81565b6103cd565b6040516101269190610de7565b60405180910390f35b34801561013b57600080fd5b506101446104bf565b6040516101519190610e84565b60405180910390f35b34801561016657600080fd5b50610181600480360381019061017c9190610c2e565b6104c5565b60405161018e9190610de7565b60405180910390f35b3480156101a357600080fd5b506101ac610676565b6040516101b99190610e84565b60405180910390f35b3480156101ce57600080fd5b506101d761067e565b6040516101e49190610e9f565b60405180910390f35b3480156101f957600080fd5b50610214600480360381019061020f9190610cc1565b610691565b005b34801561022257600080fd5b5061023d60048036038101906102389190610bc1565b6107f8565b60405161024a9190610e84565b60405180910390f35b61026d60048036038101906102689190610bc1565b610810565b005b34801561027b57600080fd5b506102846108c9565b6040516102919190610dcc565b60405180910390f35b3480156102a657600080fd5b506102af6108ef565b6040516102bc9190610e02565b60405180910390f35b3480156102d157600080fd5b506102ec60048036038101906102e79190610c81565b61097d565b6040516102f99190610de7565b60405180910390f35b34801561030e57600080fd5b5061032960048036038101906103249190610bee565b610a9a565b6040516103369190610e84565b60405180910390f35b6004805461034c90611073565b80601f016020809104026020016040519081016040528092919081815260200182805461037890611073565b80156103c55780601f1061039a576101008083540402835291602001916103c5565b820191906000526020600020905b8154815290600101906020018083116103a857829003601f168201915b505050505081565b600081600360003373ffffffffffffffffffffffffffffffffffffffff1673ffffffffffffffffffffffffffffffffffffffff16815260200190815260200160002060008573ffffffffffffffffffffffffffffffffffffffff1673ffffffffffffffffffffffffffffffffffffffff168152602001908152602001600020819055508273ffffffffffffffffffffffffffffffffffffffff163373ffffffffffffffffffffffffffffffffffffffff167f8c5be1e5ebec7d5bd14f71427d1e84f3dd0314c0f7b2291e5b200ac8c7c3b925846040516104ad9190610e84565b60405180910390a36001905092915050565b60005481565b600081600360008673ffffffffffffffffffffffffffffffffffffffff1673ffffffffffffffffffffffffffffffffffffffff16815260200190815260200160002060003373ffffffffffffffffffffffffffffffffffffffff1673ffffffffffffffffffffffffffffffffffffffff16815260200190815260200160002060008282546105539190610fb7565b9250508190555081600260008673ffffffffffffffffffffffffffffffffffffffff1673ffffffffffffffffffffffffffffffffffffffff16815260200190815260200160002060008282546105a99190610fb7565b9250508190555081600260008573ffffffffffffffffffffffffffffffffffffffff1673ffffffffffffffffffffffffffffffffffffffff16815260200190815260200160002060008282546105ff9190610ed6565b925050819055508273ffffffffffffffffffffffffffffffffffffffff168473ffffffffffffffffffffffffffffffffffffffff167fddf252ad1be2c89b69c2b068fc378daa952ba7f163c4a11628f55a4df523b3ef846040516106639190610e84565b60405180910390a3600190509392505050565b600047905090565b600660009054906101000a900460ff1681565b600660019054906101000a900473ffffffffffffffffffffffffffffffffffffffff1673ffffffffffffffffffffffffffffffffffffffff163373ffffffffffffffffffffffffffffffffffffffff1614610721576040517f08c379a000000000000000000000000000000000000000000000000000000000815260040161071890610e24565b60405180910390fd5b80600260003373ffffffffffffffffffffffffffffffffffffffff1673ffffffffffffffffffffffffffffffffffffffff16815260200190815260200160002060008282546107709190610fb7565b92505081905550806000808282546107889190610fb7565b92505081905550600073ffffffffffffffffffffffffffffffffffffffff163373ffffffffffffffffffffffffffffffffffffffff167fddf252ad1be2c89b69c2b068fc378daa952ba7f163c4a11628f55a4df523b3ef836040516107ed9190610e84565b60405180910390a350565b60026020528060005260406000206000915090505481565b620f424060005410610857576040517f08c379a000000000000000000000000000000000000000000000000000000000815260040161084e90610e44565b60405180910390fd5b60015434101561089c576040517f08c379a000000000000000000000000000000000000000000000000000000000815260040161089390610e64565b60405180910390fd5b60006001546103e8346108af9190610f5d565b6108b99190610f2c565b90506108c58183610abf565b5050565b600660019054906101000a900473ffffffffffffffffffffffffffffffffffffffff1681565b600580546108fc90611073565b80601f016020809104026020016040519081016040528092919081815260200182805461092890611073565b80156109755780601f1061094a57610100808354040283529160200191610975565b820191906000526020600020905b81548152906001019060200180831161095857829003601f168201915b505050505081565b600081600260003373ffffffffffffffffffffffffffffffffffffffff1673ffffffffffffffffffffffffffffffffffffffff16815260200190815260200160002060008282546109ce9190610fb7565b9250508190555081600260008573ffffffffffffffffffffffffffffffffffffffff1673ffffffffffffffffffffffffffffffffffffffff1681526020019081526020016000206000828254610a249190610ed6565b925050819055508273ffffffffffffffffffffffffffffffffffffffff163373ffffffffffffffffffffffffffffffffffffffff167fddf252ad1be2c89b69c2b068fc378daa952ba7f163c4a11628f55a4df523b3ef84604051610a889190610e84565b60405180910390a36001905092915050565b6003602052816000526040600020602052806000526040600020600091509150505481565b81600260008373ffffffffffffffffffffffffffffffffffffffff1673ffffffffffffffffffffffffffffffffffffffff1681526020019081526020016000206000828254610b0e9190610ed6565b9250508190555081600080828254610b269190610ed6565b925050819055508073ffffffffffffffffffffffffffffffffffffffff16600073ffffffffffffffffffffffffffffffffffffffff167fddf252ad1be2c89b69c2b068fc378daa952ba7f163c4a11628f55a4df523b3ef84604051610b8b9190610e84565b60405180910390a35050565b600081359050610ba6816111e9565b92915050565b600081359050610bbb81611200565b92915050565b600060208284031215610bd757610bd6611132565b5b6000610be584828501610b97565b91505092915050565b60008060408385031215610c0557610c04611132565b5b6000610c1385828601610b97565b9250506020610c2485828601610b97565b9150509250929050565b600080600060608486031215610c4757610c46611132565b5b6000610c5586828701610b97565b9350506020610c6686828701610b97565b9250506040610c7786828701610bac565b9150509250925092565b60008060408385031215610c9857610c97611132565b5b6000610ca685828601610b97565b9250506020610cb785828601610bac565b9150509250929050565b600060208284031215610cd757610cd6611132565b5b6000610ce584828501610bac565b91505092915050565b610cf781610feb565b82525050565b610d0681610ffd565b82525050565b6000610d1782610eba565b610d218185610ec5565b9350610d31818560208601611040565b610d3a81611137565b840191505092915050565b6000610d52602b83610ec5565b9150610d5d82611148565b604082019050919050565b6000610d75601b83610ec5565b9150610d8082611197565b602082019050919050565b6000610d98601883610ec5565b9150610da3826111c0565b602082019050919050565b610db781611029565b82525050565b610dc681611033565b82525050565b6000602082019050610de16000830184610cee565b92915050565b6000602082019050610dfc6000830184610cfd565b92915050565b60006020820190508181036000830152610e1c8184610d0c565b905092915050565b60006020820190508181036000830152610e3d81610d45565b9050919050565b60006020820190508181036000830152610e5d81610d68565b9050919050565b60006020820190508181036000830152610e7d81610d8b565b9050919050565b6000602082019050610e996000830184610dae565b92915050565b6000602082019050610eb46000830184610dbd565b92915050565b600081519050919050565b600082825260208201905092915050565b6000610ee182611029565b9150610eec83611029565b9250827fffffffffffffffffffffffffffffffffffffffffffffffffffffffffffffffff03821115610f2157610f206110a5565b5b828201905092915050565b6000610f3782611029565b9150610f4283611029565b925082610f5257610f516110d4565b5b828204905092915050565b6000610f6882611029565b9150610f7383611029565b9250817fffffffffffffffffffffffffffffffffffffffffffffffffffffffffffffffff0483118215151615610fac57610fab6110a5565b5b828202905092915050565b6000610fc282611029565b9150610fcd83611029565b925082821015610fe057610fdf6110a5565b5b828203905092915050565b6000610ff682611009565b9050919050565b60008115159050919050565b600073ffffffffffffffffffffffffffffffffffffffff82169050919050565b6000819050919050565b600060ff82169050919050565b60005b8381101561105e578082015181840152602081019050611043565b8381111561106d576000848401525b50505050565b6000600282049050600182168061108b57607f821691505b6020821081141561109f5761109e611103565b5b50919050565b7f4e487b7100000000000000000000000000000000000000000000000000000000600052601160045260246000fd5b7f4e487b7100000000000000000000000000000000000000000000000000000000600052601260045260246000fd5b7f4e487b7100000000000000000000000000000000000000000000000000000000600052602260045260246000fd5b600080fd5b6000601f19601f8301169050919050565b7f4f6e6c7920636f6e7472616374206f776e65722063616e20706572666f726d2060008201527f7468697320616374696f6e000000000000000000000000000000000000000000602082015250565b7f546f74616c20737570706c79206c696d69742065786365656465640000000000600082015250565b7f416d6f756e74206e6f7420757020746f20312065746865720000000000000000600082015250565b6111f281610feb565b81146111fd57600080fd5b50565b61120981611029565b811461121457600080fd5b5056fea26469706673582212203465ec1c1576bddd6f8adfc4bf4fcb80f83d0ff96a0d935de754f652dcec25c764736f6c63430008070033",
  "linkReferences": {},
  "deployedLinkReferences": {}
}